{"abi":[{"inputs":[{"internalType":"string","name":"_name","type":"string"},{"internalType":"bytes","name":"_address","type":"bytes"},{"internalType":"uint256","name":"_readPrice","type":"uint256"},{"internalType":"uint256","name":"_readWritePrice","type":"uint256"}],"stateMutability":"nonpayable","type":"constructor"},{"anonymous":false,"inputs":[{"indexed":true,"internalType":"address","name":"to","type":"address"},{"indexed":true,"internalType":"uint256","name":"amount","type":"uint256"}],"name":"AmountTransferTo","type":"event"},{"inputs":[],"name":"NO_PERM","outputs":[{"internalType":"uint8","name":"","type":"uint8"}],"stateMutability":"view","type":"function"},{"inputs":[],"name":"READ_PERM","outputs":[{"internalType":"uint8","name":"","type":"uint8"}],"stateMutability":"view","type":"function"},{"inputs":[],"name":"RW_PERM","outputs":[{"internalType":"uint8","name":"","type":"uint8"}],"stateMutability":"view","type":"function"},{"inputs":[{"internalType":"uint8","name":"lvl","type":"uint8"}],"name":"amountToPayForLevel","outputs":[{"internalType":"uint256","name":"","type":"uint256"}],"stateMutability":"view","type":"function"},{"inputs":[],"name":"balance","outputs":[{"internalType":"uint256","name":"","type":"uint256"}],"stateMutability":"view","type":"function"},{"inputs":[{"internalType":"uint8","name":"accessLevel","type":"uint8"}],"name":"buy","outputs":[],"stateMutability":"payable","type":"function"},{"inputs":[{"internalType":"address","name":"client","type":"address"}],"name":"currentAccessLevel","outputs":[{"internalType":"uint8","name":"","type":"uint8"}],"stateMutability":"view","type":"function"},{"inputs":[],"name":"decimals","outputs":[{"internalType":"uint8","name":"","type":"uint8"}],"stateMutability":"pure","type":"function"},{"inputs":[],"name":"getBlockAddress","outputs":[{"internalType":"bytes","name":"","type":"bytes"}],"stateMutability":"view","type":"function"},{"inputs":[],"name":"getPrices","outputs":[{"internalType":"uint256[]","name":"","type":"uint256[]"}],"stateMutability":"view","type":"function"},{"inputs":[],"name":"hasNoPerm","outputs":[{"internalType":"bool","name":"","type":"bool"}],"stateMutability":"view","type":"function"},{"inputs":[],"name":"hasRPerm","outputs":[{"internalType":"bool","name":"","type":"bool"}],"stateMutability":"view","type":"function"},{"inputs":[],"name":"hasRWPerm","outputs":[{"internalType":"bool","name":"","type":"bool"}],"stateMutability":"view","type":"function"},{"inputs":[],"name":"isOwner","outputs":[{"internalType":"bool","name":"","type":"bool"}],"stateMutability":"view","type":"function"},{"inputs":[],"name":"maxAccessLevel","outputs":[{"internalType":"uint8","name":"","type":"uint8"}],"stateMutability":"view","type":"function"},{"inputs":[],"name":"minAccessLevel","outputs":[{"internalType":"uint8","name":"","type":"uint8"}],"stateMutability":"pure","type":"function"},{"inputs":[],"name":"myAccessLevel","outputs":[{"internalType":"uint8","name":"","type":"uint8"}],"stateMutability":"view","type":"function"},{"inputs":[],"name":"name","outputs":[{"internalType":"string","name":"","type":"string"}],"stateMutability":"view","type":"function"},{"inputs":[],"name":"symbol","outputs":[{"internalType":"string","name":"","type":"string"}],"stateMutability":"view","type":"function"},{"inputs":[{"internalType":"bytes","name":"_address","type":"bytes"}],"name":"updateBlockAddress","outputs":[],"stateMutability":"nonpayable","type":"function"},{"inputs":[{"internalType":"address","name":"client","type":"address"},{"internalType":"uint8","name":"accessLevel","type":"uint8"}],"name":"updatePermission","outputs":[],"stateMutability":"nonpayable","type":"function"},{"inputs":[{"internalType":"uint256","name":"_readPrice","type":"uint256"},{"internalType":"uint256","name":"_readWritePrice","type":"uint256"}],"name":"updatePrices","outputs":[],"stateMutability":"nonpayable","type":"function"},{"inputs":[],"name":"withdraw","outputs":[],"stateMutability":"nonpayable","type":"function"}],"evm":{"bytecode":{"linkReferences":{},"object":"60a06040523480156200001157600080fd5b5060405162001250380380620012508339810160408190526200003491620003fc565b60408051808201909152600e81526d29b430b932b0b13632aa37b5b2b760911b602080830191909152600080546001600160a01b03191633179055855186929160039162000088918391908601906200025f565b5081516200009e9060049060208501906200025f565b5060ff811660808190526001600160401b03811115620000c257620000c262000342565b604051908082528060200260200182016040528015620000ec578160200160208202803683370190505b5080516200010391600191602090910190620002ee565b505084516200011c92506005915060208601906200025f565b506200013c620001346000546001600160a01b031690565b6002620001c1565b60006001600060ff1681548110620001585762000158620004a3565b90600052602060002001819055508160018060ff1681548110620001805762000180620004a3565b9060005260206000200181905550806001600260ff1681548110620001a957620001a9620004a3565b906000526020600020018190555050505050620004f5565b620001d66000546001600160a01b0316331490565b620002325760405162461bcd60e51b815260206004820152602260248201527f5b4f776e61626c655d3a2063616c6c6572206973206e6f7420746865206f776e60448201526132b960f11b606482015260840160405180910390fd5b6001600160a01b03919091166000908152600260205260409020805460ff191660ff909216919091179055565b8280546200026d90620004b9565b90600052602060002090601f016020900481019282620002915760008555620002dc565b82601f10620002ac57805160ff1916838001178555620002dc565b82800160010185558215620002dc579182015b82811115620002dc578251825591602001919060010190620002bf565b50620002ea9291506200032b565b5090565b828054828255906000526020600020908101928215620002dc5791602002820182811115620002dc578251825591602001919060010190620002bf565b5b80821115620002ea57600081556001016200032c565b634e487b7160e01b600052604160045260246000fd5b60006001600160401b038084111562000375576200037562000342565b604051601f8501601f19908116603f01168101908282118183101715620003a057620003a062000342565b81604052809350858152868686011115620003ba57600080fd5b600092505b85831015620003df578285015160208483010152602083019250620003bf565b85831115620003f2576000602087830101525b5050509392505050565b600080600080608085870312156200041357600080fd5b84516001600160401b03808211156200042b57600080fd5b818701915087601f8301126200044057600080fd5b620004518883516020850162000358565b955060208701519150808211156200046857600080fd5b508501601f810187136200047b57600080fd5b6200048c8782516020840162000358565b604087015160609097015195989097509350505050565b634e487b7160e01b600052603260045260246000fd5b600181811c90821680620004ce57607f821691505b602082108103620004ef57634e487b7160e01b600052602260045260246000fd5b50919050565b608051610d3f6200051160003960006105e40152610d3f6000f3fe6080604052600436106101405760003560e01c806398d50eb2116100b6578063ceaff5761161006f578063ceaff57614610303578063ee15c27714610323578063ef88d7f014610343578063f56926e014610363578063f796cf9514610378578063fd54af0f146103b157600080fd5b806398d50eb214610278578063998be27a1461028d5780639f674eb3146102a2578063b69ef8a8146102b7578063b6ce2cba146102cc578063bd9a548b146102e157600080fd5b806372875cc41161010857806372875cc4146101e1578063833a243f146101f65780638ce645a11461020b5780638f32d59b14610220578063945616ea1461023557806395d89b411461026357600080fd5b806306fdde031461014557806314107f3c14610170578063313ce5671461018557806334682ea5146101a75780633ccfd60b146101cc575b600080fd5b34801561015157600080fd5b5061015a6103c5565b6040516101679190610a70565b60405180910390f35b61018361017e366004610a99565b610457565b005b34801561019157600080fd5b5060125b60405160ff9091168152602001610167565b3480156101b357600080fd5b506101bc6104fe565b6040519015158152602001610167565b3480156101d857600080fd5b50610183610513565b3480156101ed57600080fd5b506101bc6105d0565b34801561020257600080fd5b50610195600181565b34801561021757600080fd5b506101956105db565b34801561022c57600080fd5b506101bc61060d565b34801561024157600080fd5b50610255610250366004610a99565b61061e565b604051908152602001610167565b34801561026f57600080fd5b5061015a61069b565b34801561028457600080fd5b506101bc6106aa565b34801561029957600080fd5b50610195600081565b3480156102ae57600080fd5b506101956106b2565b3480156102c357600080fd5b506102556106bd565b3480156102d857600080fd5b50610195600281565b3480156102ed57600080fd5b506102f66106e8565b6040516101679190610ab4565b34801561030f57600080fd5b5061018361031e366004610b0e565b61073f565b34801561032f57600080fd5b5061018361033e366004610bd6565b6107c5565b34801561034f57600080fd5b5061018361035e366004610c09565b610816565b34801561036f57600080fd5b5061015a610887565b34801561038457600080fd5b50610195610393366004610c2b565b6001600160a01b031660009081526002602052604090205460ff1690565b3480156103bd57600080fd5b506000610195565b6060600380546103d490610c46565b80601f016020809104026020016040519081016040528092919081815260200182805461040090610c46565b801561044d5780601f106104225761010080835404028352916020019161044d565b820191906000526020600020905b81548152906001019060200180831161043057829003601f168201915b5050505050905090565b8060006104638261061e565b9050803410156104d25760405162461bcd60e51b815260206004820152602f60248201527f5b536861726561626c65546f6b656e28627579295d3a20696e7375666669636960448201526e195b9d08185b5bdd5b9d081c185a59608a1b60648201526084015b60405180910390fd5b336000818152600260205260409020805460ff191660ff86161790556104f990348361090a565b505050565b6000600161050a6106b2565b60ff1614905090565b61051b61060d565b6105375760405162461bcd60e51b81526004016104c990610c80565b60006105416106bd565b116105ac5760405162461bcd60e51b815260206004820152603560248201527f5b50617961626c655d3a2062616c616e6365206d7573742062652067726561746044820152746572207468616e203020746f20776974686472617760581b60648201526084016104c9565b6105ce6105c16000546001600160a01b031690565b6105c96106bd565b61091a565b565b60008061050a6106b2565b600061060860017f0000000000000000000000000000000000000000000000000000000000000000610cc2565b905090565b6000546001600160a01b0316331490565b60008061062a33610393565b90506106346105db565b60ff168360ff16111561064a5750600092915050565b61069460018460ff168154811061066357610663610cf3565b906000526020600020015460018360ff168154811061068457610684610cf3565b9060005260206000200154610974565b9392505050565b6060600480546103d490610c46565b6000600261050a5b600061060833610393565b60006106c761060d565b6106e35760405162461bcd60e51b81526004016104c990610c80565b504790565b6060600180548060200260200160405190810160405280929190818152602001828054801561044d57602002820191906000526020600020905b815481526020019060010190808311610722575050505050905090565b6107476106aa565b6107ae5760405162461bcd60e51b815260206004820152603260248201527f5b536861726561626c6553746f726167655d3a20646f6573206e6f742068617660448201527132903bb934ba32903832b936b4b9b9b4b7b760711b60648201526084016104c9565b80516107c190600590602084019061098a565b5050565b6107cd61060d565b6107e95760405162461bcd60e51b81526004016104c990610c80565b6001600160a01b03919091166000908152600260205260409020805460ff191660ff909216919091179055565b61081e61060d565b61083a5760405162461bcd60e51b81526004016104c990610c80565b8160018060ff168154811061085157610851610cf3565b9060005260206000200181905550806001600260ff168154811061087757610877610cf3565b6000918252602090912001555050565b606060006108936106b2565b60ff16116108fd5760405162461bcd60e51b815260206004820152603160248201527f5b536861726561626c6553746f726167655d3a20646f6573206e6f742068617660448201527032903932b0b2103832b936b4b9b9b4b7b760791b60648201526084016104c9565b600580546103d490610c46565b808211156104f9576104f9838284035b61092261060d565b61093e5760405162461bcd60e51b81526004016104c990610c80565b6040516001600160a01b0383169082156108fc029083906000818181858888f193505050501580156104f9573d6000803e3d6000fd5b6000818311610984576000610694565b50900390565b82805461099690610c46565b90600052602060002090601f0160209004810192826109b857600085556109fe565b82601f106109d157805160ff19168380011785556109fe565b828001600101855582156109fe579182015b828111156109fe5782518255916020019190600101906109e3565b50610a0a929150610a0e565b5090565b5b80821115610a0a5760008155600101610a0f565b6000815180845260005b81811015610a4957602081850181015186830182015201610a2d565b81811115610a5b576000602083870101525b50601f01601f19169290920160200192915050565b6020815260006106946020830184610a23565b803560ff81168114610a9457600080fd5b919050565b600060208284031215610aab57600080fd5b61069482610a83565b6020808252825182820181905260009190848201906040850190845b81811015610aec57835183529284019291840191600101610ad0565b50909695505050505050565b634e487b7160e01b600052604160045260246000fd5b600060208284031215610b2057600080fd5b813567ffffffffffffffff80821115610b3857600080fd5b818401915084601f830112610b4c57600080fd5b813581811115610b5e57610b5e610af8565b604051601f8201601f19908116603f01168101908382118183101715610b8657610b86610af8565b81604052828152876020848701011115610b9f57600080fd5b826020860160208301376000928101602001929092525095945050505050565b80356001600160a01b0381168114610a9457600080fd5b60008060408385031215610be957600080fd5b610bf283610bbf565b9150610c0060208401610a83565b90509250929050565b60008060408385031215610c1c57600080fd5b50508035926020909101359150565b600060208284031215610c3d57600080fd5b61069482610bbf565b600181811c90821680610c5a57607f821691505b602082108103610c7a57634e487b7160e01b600052602260045260246000fd5b50919050565b60208082526022908201527f5b4f776e61626c655d3a2063616c6c6572206973206e6f7420746865206f776e60408201526132b960f11b606082015260800190565b600060ff821660ff841680821015610cea57634e487b7160e01b600052601160045260246000fd5b90039392505050565b634e487b7160e01b600052603260045260246000fdfea26469706673582212208dc33d0d73303252351fd621ed49342420f303d3265f76596c9975d052f2e42d64736f6c634300080d0033","opcodes":"PUSH1 0xA0 PUSH1 0x40 MSTORE CALLVALUE DUP1 ISZERO PUSH3 0x11 JUMPI PUSH1 0x0 DUP1 REVERT JUMPDEST POP PUSH1 0x40 MLOAD PUSH3 0x1250 CODESIZE SUB DUP1 PUSH3 0x1250 DUP4 CODECOPY DUP2 ADD PUSH1 0x40 DUP2 SWAP1 MSTORE PUSH3 0x34 SWAP2 PUSH3 0x3FC JUMP JUMPDEST PUSH1 0x40 DUP1 MLOAD DUP1 DUP3 ADD SWAP1 SWAP2 MSTORE PUSH1 0xE DUP2 MSTORE PUSH14 0x29B430B932B0B13632AA37B5B2B7 PUSH1 0x91 SHL PUSH1 0x20 DUP1 DUP4 ADD SWAP2 SWAP1 SWAP2 MSTORE PUSH1 0x0 DUP1 SLOAD PUSH1 0x1 PUSH1 0x1 PUSH1 0xA0 SHL SUB NOT AND CALLER OR SWAP1 SSTORE DUP6 MLOAD DUP7 SWAP3 SWAP2 PUSH1 0x3 SWAP2 PUSH3 0x88 SWAP2 DUP4 SWAP2 SWAP1 DUP7 ADD SWAP1 PUSH3 0x25F JUMP JUMPDEST POP DUP2 MLOAD PUSH3 0x9E SWAP1 PUSH1 0x4 SWAP1 PUSH1 0x20 DUP6 ADD SWAP1 PUSH3 0x25F JUMP JUMPDEST POP PUSH1 0xFF DUP2 AND PUSH1 0x80 DUP2 SWAP1 MSTORE PUSH1 0x1 PUSH1 0x1 PUSH1 0x40 SHL SUB DUP2 GT ISZERO PUSH3 0xC2 JUMPI PUSH3 0xC2 PUSH3 0x342 JUMP JUMPDEST PUSH1 0x40 MLOAD SWAP1 DUP1 DUP3 MSTORE DUP1 PUSH1 0x20 MUL PUSH1 0x20 ADD DUP3 ADD PUSH1 0x40 MSTORE DUP1 ISZERO PUSH3 0xEC JUMPI DUP2 PUSH1 0x20 ADD PUSH1 0x20 DUP3 MUL DUP1 CALLDATASIZE DUP4 CALLDATACOPY ADD SWAP1 POP JUMPDEST POP DUP1 MLOAD PUSH3 0x103 SWAP2 PUSH1 0x1 SWAP2 PUSH1 0x20 SWAP1 SWAP2 ADD SWAP1 PUSH3 0x2EE JUMP JUMPDEST POP POP DUP5 MLOAD PUSH3 0x11C SWAP3 POP PUSH1 0x5 SWAP2 POP PUSH1 0x20 DUP7 ADD SWAP1 PUSH3 0x25F JUMP JUMPDEST POP PUSH3 0x13C PUSH3 0x134 PUSH1 0x0 SLOAD PUSH1 0x1 PUSH1 0x1 PUSH1 0xA0 SHL SUB AND SWAP1 JUMP JUMPDEST PUSH1 0x2 PUSH3 0x1C1 JUMP JUMPDEST PUSH1 0x0 PUSH1 0x1 PUSH1 0x0 PUSH1 0xFF AND DUP2 SLOAD DUP2 LT PUSH3 0x158 JUMPI PUSH3 0x158 PUSH3 0x4A3 JUMP JUMPDEST SWAP1 PUSH1 0x0 MSTORE PUSH1 0x20 PUSH1 0x0 KECCAK256 ADD DUP2 SWAP1 SSTORE POP DUP2 PUSH1 0x1 DUP1 PUSH1 0xFF AND DUP2 SLOAD DUP2 LT PUSH3 0x180 JUMPI PUSH3 0x180 PUSH3 0x4A3 JUMP JUMPDEST SWAP1 PUSH1 0x0 MSTORE PUSH1 0x20 PUSH1 0x0 KECCAK256 ADD DUP2 SWAP1 SSTORE POP DUP1 PUSH1 0x1 PUSH1 0x2 PUSH1 0xFF AND DUP2 SLOAD DUP2 LT PUSH3 0x1A9 JUMPI PUSH3 0x1A9 PUSH3 0x4A3 JUMP JUMPDEST SWAP1 PUSH1 0x0 MSTORE PUSH1 0x20 PUSH1 0x0 KECCAK256 ADD DUP2 SWAP1 SSTORE POP POP POP POP POP PUSH3 0x4F5 JUMP JUMPDEST PUSH3 0x1D6 PUSH1 0x0 SLOAD PUSH1 0x1 PUSH1 0x1 PUSH1 0xA0 SHL SUB AND CALLER EQ SWAP1 JUMP JUMPDEST PUSH3 0x232 JUMPI PUSH1 0x40 MLOAD PUSH3 0x461BCD PUSH1 0xE5 SHL DUP2 MSTORE PUSH1 0x20 PUSH1 0x4 DUP3 ADD MSTORE PUSH1 0x22 PUSH1 0x24 DUP3 ADD MSTORE PUSH32 0x5B4F776E61626C655D3A2063616C6C6572206973206E6F7420746865206F776E PUSH1 0x44 DUP3 ADD MSTORE PUSH2 0x32B9 PUSH1 0xF1 SHL PUSH1 0x64 DUP3 ADD MSTORE PUSH1 0x84 ADD PUSH1 0x40 MLOAD DUP1 SWAP2 SUB SWAP1 REVERT JUMPDEST PUSH1 0x1 PUSH1 0x1 PUSH1 0xA0 SHL SUB SWAP2 SWAP1 SWAP2 AND PUSH1 0x0 SWAP1 DUP2 MSTORE PUSH1 0x2 PUSH1 0x20 MSTORE PUSH1 0x40 SWAP1 KECCAK256 DUP1 SLOAD PUSH1 0xFF NOT AND PUSH1 0xFF SWAP1 SWAP3 AND SWAP2 SWAP1 SWAP2 OR SWAP1 SSTORE JUMP JUMPDEST DUP3 DUP1 SLOAD PUSH3 0x26D SWAP1 PUSH3 0x4B9 JUMP JUMPDEST SWAP1 PUSH1 0x0 MSTORE PUSH1 0x20 PUSH1 0x0 KECCAK256 SWAP1 PUSH1 0x1F ADD PUSH1 0x20 SWAP1 DIV DUP2 ADD SWAP3 DUP3 PUSH3 0x291 JUMPI PUSH1 0x0 DUP6 SSTORE PUSH3 0x2DC JUMP JUMPDEST DUP3 PUSH1 0x1F LT PUSH3 0x2AC JUMPI DUP1 MLOAD PUSH1 0xFF NOT AND DUP4 DUP1 ADD OR DUP6 SSTORE PUSH3 0x2DC JUMP JUMPDEST DUP3 DUP1 ADD PUSH1 0x1 ADD DUP6 SSTORE DUP3 ISZERO PUSH3 0x2DC JUMPI SWAP2 DUP3 ADD JUMPDEST DUP3 DUP2 GT ISZERO PUSH3 0x2DC JUMPI DUP3 MLOAD DUP3 SSTORE SWAP2 PUSH1 0x20 ADD SWAP2 SWAP1 PUSH1 0x1 ADD SWAP1 PUSH3 0x2BF JUMP JUMPDEST POP PUSH3 0x2EA SWAP3 SWAP2 POP PUSH3 0x32B JUMP JUMPDEST POP SWAP1 JUMP JUMPDEST DUP3 DUP1 SLOAD DUP3 DUP3 SSTORE SWAP1 PUSH1 0x0 MSTORE PUSH1 0x20 PUSH1 0x0 KECCAK256 SWAP1 DUP2 ADD SWAP3 DUP3 ISZERO PUSH3 0x2DC JUMPI SWAP2 PUSH1 0x20 MUL DUP3 ADD DUP3 DUP2 GT ISZERO PUSH3 0x2DC JUMPI DUP3 MLOAD DUP3 SSTORE SWAP2 PUSH1 0x20 ADD SWAP2 SWAP1 PUSH1 0x1 ADD SWAP1 PUSH3 0x2BF JUMP JUMPDEST JUMPDEST DUP1 DUP3 GT ISZERO PUSH3 0x2EA JUMPI PUSH1 0x0 DUP2 SSTORE PUSH1 0x1 ADD PUSH3 0x32C JUMP JUMPDEST PUSH4 0x4E487B71 PUSH1 0xE0 SHL PUSH1 0x0 MSTORE PUSH1 0x41 PUSH1 0x4 MSTORE PUSH1 0x24 PUSH1 0x0 REVERT JUMPDEST PUSH1 0x0 PUSH1 0x1 PUSH1 0x1 PUSH1 0x40 SHL SUB DUP1 DUP5 GT ISZERO PUSH3 0x375 JUMPI PUSH3 0x375 PUSH3 0x342 JUMP JUMPDEST PUSH1 0x40 MLOAD PUSH1 0x1F DUP6 ADD PUSH1 0x1F NOT SWAP1 DUP2 AND PUSH1 0x3F ADD AND DUP2 ADD SWAP1 DUP3 DUP3 GT DUP2 DUP4 LT OR ISZERO PUSH3 0x3A0 JUMPI PUSH3 0x3A0 PUSH3 0x342 JUMP JUMPDEST DUP2 PUSH1 0x40 MSTORE DUP1 SWAP4 POP DUP6 DUP2 MSTORE DUP7 DUP7 DUP7 ADD GT ISZERO PUSH3 0x3BA JUMPI PUSH1 0x0 DUP1 REVERT JUMPDEST PUSH1 0x0 SWAP3 POP JUMPDEST DUP6 DUP4 LT ISZERO PUSH3 0x3DF JUMPI DUP3 DUP6 ADD MLOAD PUSH1 0x20 DUP5 DUP4 ADD ADD MSTORE PUSH1 0x20 DUP4 ADD SWAP3 POP PUSH3 0x3BF JUMP JUMPDEST DUP6 DUP4 GT ISZERO PUSH3 0x3F2 JUMPI PUSH1 0x0 PUSH1 0x20 DUP8 DUP4 ADD ADD MSTORE JUMPDEST POP POP POP SWAP4 SWAP3 POP POP POP JUMP JUMPDEST PUSH1 0x0 DUP1 PUSH1 0x0 DUP1 PUSH1 0x80 DUP6 DUP8 SUB SLT ISZERO PUSH3 0x413 JUMPI PUSH1 0x0 DUP1 REVERT JUMPDEST DUP5 MLOAD PUSH1 0x1 PUSH1 0x1 PUSH1 0x40 SHL SUB DUP1 DUP3 GT ISZERO PUSH3 0x42B JUMPI PUSH1 0x0 DUP1 REVERT JUMPDEST DUP2 DUP8 ADD SWAP2 POP DUP8 PUSH1 0x1F DUP4 ADD SLT PUSH3 0x440 JUMPI PUSH1 0x0 DUP1 REVERT JUMPDEST PUSH3 0x451 DUP9 DUP4 MLOAD PUSH1 0x20 DUP6 ADD PUSH3 0x358 JUMP JUMPDEST SWAP6 POP PUSH1 0x20 DUP8 ADD MLOAD SWAP2 POP DUP1 DUP3 GT ISZERO PUSH3 0x468 JUMPI PUSH1 0x0 DUP1 REVERT JUMPDEST POP DUP6 ADD PUSH1 0x1F DUP2 ADD DUP8 SGT PUSH3 0x47B JUMPI PUSH1 0x0 DUP1 REVERT JUMPDEST PUSH3 0x48C DUP8 DUP3 MLOAD PUSH1 0x20 DUP5 ADD PUSH3 0x358 JUMP JUMPDEST PUSH1 0x40 DUP8 ADD MLOAD PUSH1 0x60 SWAP1 SWAP8 ADD MLOAD SWAP6 SWAP9 SWAP1 SWAP8 POP SWAP4 POP POP POP POP JUMP JUMPDEST PUSH4 0x4E487B71 PUSH1 0xE0 SHL PUSH1 0x0 MSTORE PUSH1 0x32 PUSH1 0x4 MSTORE PUSH1 0x24 PUSH1 0x0 REVERT JUMPDEST PUSH1 0x1 DUP2 DUP2 SHR SWAP1 DUP3 AND DUP1 PUSH3 0x4CE JUMPI PUSH1 0x7F DUP3 AND SWAP2 POP JUMPDEST PUSH1 0x20 DUP3 LT DUP2 SUB PUSH3 0x4EF JUMPI PUSH4 0x4E487B71 PUSH1 0xE0 SHL PUSH1 0x0 MSTORE PUSH1 0x22 PUSH1 0x4 MSTORE PUSH1 0x24 PUSH1 0x0 REVERT JUMPDEST POP SWAP2 SWAP1 POP JUMP JUMPDEST PUSH1 0x80 MLOAD PUSH2 0xD3F PUSH3 0x511 PUSH1 0x0 CODECOPY PUSH1 0x0 PUSH2 0x5E4 ADD MSTORE PUSH2 0xD3F PUSH1 0x0 RETURN INVALID PUSH1 0x80 PUSH1 0x40 MSTORE PUSH1 0x4 CALLDATASIZE LT PUSH2 0x140 JUMPI PUSH1 0x0 CALLDATALOAD PUSH1 0xE0 SHR DUP1 PUSH4 0x98D50EB2 GT PUSH2 0xB6 JUMPI DUP1 PUSH4 0xCEAFF576 GT PUSH2 0x6F JUMPI DUP1 PUSH4 0xCEAFF576 EQ PUSH2 0x303 JUMPI DUP1 PUSH4 0xEE15C277 EQ PUSH2 0x323 JUMPI DUP1 PUSH4 0xEF88D7F0 EQ PUSH2 0x343 JUMPI DUP1 PUSH4 0xF56926E0 EQ PUSH2 0x363 JUMPI DUP1 PUSH4 0xF796CF95 EQ PUSH2 0x378 JUMPI DUP1 PUSH4 0xFD54AF0F EQ PUSH2 0x3B1 JUMPI PUSH1 0x0 DUP1 REVERT JUMPDEST DUP1 PUSH4 0x98D50EB2 EQ PUSH2 0x278 JUMPI DUP1 PUSH4 0x998BE27A EQ PUSH2 0x28D JUMPI DUP1 PUSH4 0x9F674EB3 EQ PUSH2 0x2A2 JUMPI DUP1 PUSH4 0xB69EF8A8 EQ PUSH2 0x2B7 JUMPI DUP1 PUSH4 0xB6CE2CBA EQ PUSH2 0x2CC JUMPI DUP1 PUSH4 0xBD9A548B EQ PUSH2 0x2E1 JUMPI PUSH1 0x0 DUP1 REVERT JUMPDEST DUP1 PUSH4 0x72875CC4 GT PUSH2 0x108 JUMPI DUP1 PUSH4 0x72875CC4 EQ PUSH2 0x1E1 JUMPI DUP1 PUSH4 0x833A243F EQ PUSH2 0x1F6 JUMPI DUP1 PUSH4 0x8CE645A1 EQ PUSH2 0x20B JUMPI DUP1 PUSH4 0x8F32D59B EQ PUSH2 0x220 JUMPI DUP1 PUSH4 0x945616EA EQ PUSH2 0x235 JUMPI DUP1 PUSH4 0x95D89B41 EQ PUSH2 0x263 JUMPI PUSH1 0x0 DUP1 REVERT JUMPDEST DUP1 PUSH4 0x6FDDE03 EQ PUSH2 0x145 JUMPI DUP1 PUSH4 0x14107F3C EQ PUSH2 0x170 JUMPI DUP1 PUSH4 0x313CE567 EQ PUSH2 0x185 JUMPI DUP1 PUSH4 0x34682EA5 EQ PUSH2 0x1A7 JUMPI DUP1 PUSH4 0x3CCFD60B EQ PUSH2 0x1CC JUMPI JUMPDEST PUSH1 0x0 DUP1 REVERT JUMPDEST CALLVALUE DUP1 ISZERO PUSH2 0x151 JUMPI PUSH1 0x0 DUP1 REVERT JUMPDEST POP PUSH2 0x15A PUSH2 0x3C5 JUMP JUMPDEST PUSH1 0x40 MLOAD PUSH2 0x167 SWAP2 SWAP1 PUSH2 0xA70 JUMP JUMPDEST PUSH1 0x40 MLOAD DUP1 SWAP2 SUB SWAP1 RETURN JUMPDEST PUSH2 0x183 PUSH2 0x17E CALLDATASIZE PUSH1 0x4 PUSH2 0xA99 JUMP JUMPDEST PUSH2 0x457 JUMP JUMPDEST STOP JUMPDEST CALLVALUE DUP1 ISZERO PUSH2 0x191 JUMPI PUSH1 0x0 DUP1 REVERT JUMPDEST POP PUSH1 0x12 JUMPDEST PUSH1 0x40 MLOAD PUSH1 0xFF SWAP1 SWAP2 AND DUP2 MSTORE PUSH1 0x20 ADD PUSH2 0x167 JUMP JUMPDEST CALLVALUE DUP1 ISZERO PUSH2 0x1B3 JUMPI PUSH1 0x0 DUP1 REVERT JUMPDEST POP PUSH2 0x1BC PUSH2 0x4FE JUMP JUMPDEST PUSH1 0x40 MLOAD SWAP1 ISZERO ISZERO DUP2 MSTORE PUSH1 0x20 ADD PUSH2 0x167 JUMP JUMPDEST CALLVALUE DUP1 ISZERO PUSH2 0x1D8 JUMPI PUSH1 0x0 DUP1 REVERT JUMPDEST POP PUSH2 0x183 PUSH2 0x513 JUMP JUMPDEST CALLVALUE DUP1 ISZERO PUSH2 0x1ED JUMPI PUSH1 0x0 DUP1 REVERT JUMPDEST POP PUSH2 0x1BC PUSH2 0x5D0 JUMP JUMPDEST CALLVALUE DUP1 ISZERO PUSH2 0x202 JUMPI PUSH1 0x0 DUP1 REVERT JUMPDEST POP PUSH2 0x195 PUSH1 0x1 DUP2 JUMP JUMPDEST CALLVALUE DUP1 ISZERO PUSH2 0x217 JUMPI PUSH1 0x0 DUP1 REVERT JUMPDEST POP PUSH2 0x195 PUSH2 0x5DB JUMP JUMPDEST CALLVALUE DUP1 ISZERO PUSH2 0x22C JUMPI PUSH1 0x0 DUP1 REVERT JUMPDEST POP PUSH2 0x1BC PUSH2 0x60D JUMP JUMPDEST CALLVALUE DUP1 ISZERO PUSH2 0x241 JUMPI PUSH1 0x0 DUP1 REVERT JUMPDEST POP PUSH2 0x255 PUSH2 0x250 CALLDATASIZE PUSH1 0x4 PUSH2 0xA99 JUMP JUMPDEST PUSH2 0x61E JUMP JUMPDEST PUSH1 0x40 MLOAD SWAP1 DUP2 MSTORE PUSH1 0x20 ADD PUSH2 0x167 JUMP JUMPDEST CALLVALUE DUP1 ISZERO PUSH2 0x26F JUMPI PUSH1 0x0 DUP1 REVERT JUMPDEST POP PUSH2 0x15A PUSH2 0x69B JUMP JUMPDEST CALLVALUE DUP1 ISZERO PUSH2 0x284 JUMPI PUSH1 0x0 DUP1 REVERT JUMPDEST POP PUSH2 0x1BC PUSH2 0x6AA JUMP JUMPDEST CALLVALUE DUP1 ISZERO PUSH2 0x299 JUMPI PUSH1 0x0 DUP1 REVERT JUMPDEST POP PUSH2 0x195 PUSH1 0x0 DUP2 JUMP JUMPDEST CALLVALUE DUP1 ISZERO PUSH2 0x2AE JUMPI PUSH1 0x0 DUP1 REVERT JUMPDEST POP PUSH2 0x195 PUSH2 0x6B2 JUMP JUMPDEST CALLVALUE DUP1 ISZERO PUSH2 0x2C3 JUMPI PUSH1 0x0 DUP1 REVERT JUMPDEST POP PUSH2 0x255 PUSH2 0x6BD JUMP JUMPDEST CALLVALUE DUP1 ISZERO PUSH2 0x2D8 JUMPI PUSH1 0x0 DUP1 REVERT JUMPDEST POP PUSH2 0x195 PUSH1 0x2 DUP2 JUMP JUMPDEST CALLVALUE DUP1 ISZERO PUSH2 0x2ED JUMPI PUSH1 0x0 DUP1 REVERT JUMPDEST POP PUSH2 0x2F6 PUSH2 0x6E8 JUMP JUMPDEST PUSH1 0x40 MLOAD PUSH2 0x167 SWAP2 SWAP1 PUSH2 0xAB4 JUMP JUMPDEST CALLVALUE DUP1 ISZERO PUSH2 0x30F JUMPI PUSH1 0x0 DUP1 REVERT JUMPDEST POP PUSH2 0x183 PUSH2 0x31E CALLDATASIZE PUSH1 0x4 PUSH2 0xB0E JUMP JUMPDEST PUSH2 0x73F JUMP JUMPDEST CALLVALUE DUP1 ISZERO PUSH2 0x32F JUMPI PUSH1 0x0 DUP1 REVERT JUMPDEST POP PUSH2 0x183 PUSH2 0x33E CALLDATASIZE PUSH1 0x4 PUSH2 0xBD6 JUMP JUMPDEST PUSH2 0x7C5 JUMP JUMPDEST CALLVALUE DUP1 ISZERO PUSH2 0x34F JUMPI PUSH1 0x0 DUP1 REVERT JUMPDEST POP PUSH2 0x183 PUSH2 0x35E CALLDATASIZE PUSH1 0x4 PUSH2 0xC09 JUMP JUMPDEST PUSH2 0x816 JUMP JUMPDEST CALLVALUE DUP1 ISZERO PUSH2 0x36F JUMPI PUSH1 0x0 DUP1 REVERT JUMPDEST POP PUSH2 0x15A PUSH2 0x887 JUMP JUMPDEST CALLVALUE DUP1 ISZERO PUSH2 0x384 JUMPI PUSH1 0x0 DUP1 REVERT JUMPDEST POP PUSH2 0x195 PUSH2 0x393 CALLDATASIZE PUSH1 0x4 PUSH2 0xC2B JUMP JUMPDEST PUSH1 0x1 PUSH1 0x1 PUSH1 0xA0 SHL SUB AND PUSH1 0x0 SWAP1 DUP2 MSTORE PUSH1 0x2 PUSH1 0x20 MSTORE PUSH1 0x40 SWAP1 KECCAK256 SLOAD PUSH1 0xFF AND SWAP1 JUMP JUMPDEST CALLVALUE DUP1 ISZERO PUSH2 0x3BD JUMPI PUSH1 0x0 DUP1 REVERT JUMPDEST POP PUSH1 0x0 PUSH2 0x195 JUMP JUMPDEST PUSH1 0x60 PUSH1 0x3 DUP1 SLOAD PUSH2 0x3D4 SWAP1 PUSH2 0xC46 JUMP JUMPDEST DUP1 PUSH1 0x1F ADD PUSH1 0x20 DUP1 SWAP2 DIV MUL PUSH1 0x20 ADD PUSH1 0x40 MLOAD SWAP1 DUP2 ADD PUSH1 0x40 MSTORE DUP1 SWAP3 SWAP2 SWAP1 DUP2 DUP2 MSTORE PUSH1 0x20 ADD DUP3 DUP1 SLOAD PUSH2 0x400 SWAP1 PUSH2 0xC46 JUMP JUMPDEST DUP1 ISZERO PUSH2 0x44D JUMPI DUP1 PUSH1 0x1F LT PUSH2 0x422 JUMPI PUSH2 0x100 DUP1 DUP4 SLOAD DIV MUL DUP4 MSTORE SWAP2 PUSH1 0x20 ADD SWAP2 PUSH2 0x44D JUMP JUMPDEST DUP3 ADD SWAP2 SWAP1 PUSH1 0x0 MSTORE PUSH1 0x20 PUSH1 0x0 KECCAK256 SWAP1 JUMPDEST DUP2 SLOAD DUP2 MSTORE SWAP1 PUSH1 0x1 ADD SWAP1 PUSH1 0x20 ADD DUP1 DUP4 GT PUSH2 0x430 JUMPI DUP3 SWAP1 SUB PUSH1 0x1F AND DUP3 ADD SWAP2 JUMPDEST POP POP POP POP POP SWAP1 POP SWAP1 JUMP JUMPDEST DUP1 PUSH1 0x0 PUSH2 0x463 DUP3 PUSH2 0x61E JUMP JUMPDEST SWAP1 POP DUP1 CALLVALUE LT ISZERO PUSH2 0x4D2 JUMPI PUSH1 0x40 MLOAD PUSH3 0x461BCD PUSH1 0xE5 SHL DUP2 MSTORE PUSH1 0x20 PUSH1 0x4 DUP3 ADD MSTORE PUSH1 0x2F PUSH1 0x24 DUP3 ADD MSTORE PUSH32 0x5B536861726561626C65546F6B656E28627579295D3A20696E73756666696369 PUSH1 0x44 DUP3 ADD MSTORE PUSH15 0x195B9D08185B5BDD5B9D081C185A59 PUSH1 0x8A SHL PUSH1 0x64 DUP3 ADD MSTORE PUSH1 0x84 ADD JUMPDEST PUSH1 0x40 MLOAD DUP1 SWAP2 SUB SWAP1 REVERT JUMPDEST CALLER PUSH1 0x0 DUP2 DUP2 MSTORE PUSH1 0x2 PUSH1 0x20 MSTORE PUSH1 0x40 SWAP1 KECCAK256 DUP1 SLOAD PUSH1 0xFF NOT AND PUSH1 0xFF DUP7 AND OR SWAP1 SSTORE PUSH2 0x4F9 SWAP1 CALLVALUE DUP4 PUSH2 0x90A JUMP JUMPDEST POP POP POP JUMP JUMPDEST PUSH1 0x0 PUSH1 0x1 PUSH2 0x50A PUSH2 0x6B2 JUMP JUMPDEST PUSH1 0xFF AND EQ SWAP1 POP SWAP1 JUMP JUMPDEST PUSH2 0x51B PUSH2 0x60D JUMP JUMPDEST PUSH2 0x537 JUMPI PUSH1 0x40 MLOAD PUSH3 0x461BCD PUSH1 0xE5 SHL DUP2 MSTORE PUSH1 0x4 ADD PUSH2 0x4C9 SWAP1 PUSH2 0xC80 JUMP JUMPDEST PUSH1 0x0 PUSH2 0x541 PUSH2 0x6BD JUMP JUMPDEST GT PUSH2 0x5AC JUMPI PUSH1 0x40 MLOAD PUSH3 0x461BCD PUSH1 0xE5 SHL DUP2 MSTORE PUSH1 0x20 PUSH1 0x4 DUP3 ADD MSTORE PUSH1 0x35 PUSH1 0x24 DUP3 ADD MSTORE PUSH32 0x5B50617961626C655D3A2062616C616E6365206D757374206265206772656174 PUSH1 0x44 DUP3 ADD MSTORE PUSH21 0x6572207468616E203020746F207769746864726177 PUSH1 0x58 SHL PUSH1 0x64 DUP3 ADD MSTORE PUSH1 0x84 ADD PUSH2 0x4C9 JUMP JUMPDEST PUSH2 0x5CE PUSH2 0x5C1 PUSH1 0x0 SLOAD PUSH1 0x1 PUSH1 0x1 PUSH1 0xA0 SHL SUB AND SWAP1 JUMP JUMPDEST PUSH2 0x5C9 PUSH2 0x6BD JUMP JUMPDEST PUSH2 0x91A JUMP JUMPDEST JUMP JUMPDEST PUSH1 0x0 DUP1 PUSH2 0x50A PUSH2 0x6B2 JUMP JUMPDEST PUSH1 0x0 PUSH2 0x608 PUSH1 0x1 PUSH32 0x0 PUSH2 0xCC2 JUMP JUMPDEST SWAP1 POP SWAP1 JUMP JUMPDEST PUSH1 0x0 SLOAD PUSH1 0x1 PUSH1 0x1 PUSH1 0xA0 SHL SUB AND CALLER EQ SWAP1 JUMP JUMPDEST PUSH1 0x0 DUP1 PUSH2 0x62A CALLER PUSH2 0x393 JUMP JUMPDEST SWAP1 POP PUSH2 0x634 PUSH2 0x5DB JUMP JUMPDEST PUSH1 0xFF AND DUP4 PUSH1 0xFF AND GT ISZERO PUSH2 0x64A JUMPI POP PUSH1 0x0 SWAP3 SWAP2 POP POP JUMP JUMPDEST PUSH2 0x694 PUSH1 0x1 DUP5 PUSH1 0xFF AND DUP2 SLOAD DUP2 LT PUSH2 0x663 JUMPI PUSH2 0x663 PUSH2 0xCF3 JUMP JUMPDEST SWAP1 PUSH1 0x0 MSTORE PUSH1 0x20 PUSH1 0x0 KECCAK256 ADD SLOAD PUSH1 0x1 DUP4 PUSH1 0xFF AND DUP2 SLOAD DUP2 LT PUSH2 0x684 JUMPI PUSH2 0x684 PUSH2 0xCF3 JUMP JUMPDEST SWAP1 PUSH1 0x0 MSTORE PUSH1 0x20 PUSH1 0x0 KECCAK256 ADD SLOAD PUSH2 0x974 JUMP JUMPDEST SWAP4 SWAP3 POP POP POP JUMP JUMPDEST PUSH1 0x60 PUSH1 0x4 DUP1 SLOAD PUSH2 0x3D4 SWAP1 PUSH2 0xC46 JUMP JUMPDEST PUSH1 0x0 PUSH1 0x2 PUSH2 0x50A JUMPDEST PUSH1 0x0 PUSH2 0x608 CALLER PUSH2 0x393 JUMP JUMPDEST PUSH1 0x0 PUSH2 0x6C7 PUSH2 0x60D JUMP JUMPDEST PUSH2 0x6E3 JUMPI PUSH1 0x40 MLOAD PUSH3 0x461BCD PUSH1 0xE5 SHL DUP2 MSTORE PUSH1 0x4 ADD PUSH2 0x4C9 SWAP1 PUSH2 0xC80 JUMP JUMPDEST POP SELFBALANCE SWAP1 JUMP JUMPDEST PUSH1 0x60 PUSH1 0x1 DUP1 SLOAD DUP1 PUSH1 0x20 MUL PUSH1 0x20 ADD PUSH1 0x40 MLOAD SWAP1 DUP2 ADD PUSH1 0x40 MSTORE DUP1 SWAP3 SWAP2 SWAP1 DUP2 DUP2 MSTORE PUSH1 0x20 ADD DUP3 DUP1 SLOAD DUP1 ISZERO PUSH2 0x44D JUMPI PUSH1 0x20 MUL DUP3 ADD SWAP2 SWAP1 PUSH1 0x0 MSTORE PUSH1 0x20 PUSH1 0x0 KECCAK256 SWAP1 JUMPDEST DUP2 SLOAD DUP2 MSTORE PUSH1 0x20 ADD SWAP1 PUSH1 0x1 ADD SWAP1 DUP1 DUP4 GT PUSH2 0x722 JUMPI POP POP POP POP POP SWAP1 POP SWAP1 JUMP JUMPDEST PUSH2 0x747 PUSH2 0x6AA JUMP JUMPDEST PUSH2 0x7AE JUMPI PUSH1 0x40 MLOAD PUSH3 0x461BCD PUSH1 0xE5 SHL DUP2 MSTORE PUSH1 0x20 PUSH1 0x4 DUP3 ADD MSTORE PUSH1 0x32 PUSH1 0x24 DUP3 ADD MSTORE PUSH32 0x5B536861726561626C6553746F726167655D3A20646F6573206E6F7420686176 PUSH1 0x44 DUP3 ADD MSTORE PUSH18 0x32903BB934BA32903832B936B4B9B9B4B7B7 PUSH1 0x71 SHL PUSH1 0x64 DUP3 ADD MSTORE PUSH1 0x84 ADD PUSH2 0x4C9 JUMP JUMPDEST DUP1 MLOAD PUSH2 0x7C1 SWAP1 PUSH1 0x5 SWAP1 PUSH1 0x20 DUP5 ADD SWAP1 PUSH2 0x98A JUMP JUMPDEST POP POP JUMP JUMPDEST PUSH2 0x7CD PUSH2 0x60D JUMP JUMPDEST PUSH2 0x7E9 JUMPI PUSH1 0x40 MLOAD PUSH3 0x461BCD PUSH1 0xE5 SHL DUP2 MSTORE PUSH1 0x4 ADD PUSH2 0x4C9 SWAP1 PUSH2 0xC80 JUMP JUMPDEST PUSH1 0x1 PUSH1 0x1 PUSH1 0xA0 SHL SUB SWAP2 SWAP1 SWAP2 AND PUSH1 0x0 SWAP1 DUP2 MSTORE PUSH1 0x2 PUSH1 0x20 MSTORE PUSH1 0x40 SWAP1 KECCAK256 DUP1 SLOAD PUSH1 0xFF NOT AND PUSH1 0xFF SWAP1 SWAP3 AND SWAP2 SWAP1 SWAP2 OR SWAP1 SSTORE JUMP JUMPDEST PUSH2 0x81E PUSH2 0x60D JUMP JUMPDEST PUSH2 0x83A JUMPI PUSH1 0x40 MLOAD PUSH3 0x461BCD PUSH1 0xE5 SHL DUP2 MSTORE PUSH1 0x4 ADD PUSH2 0x4C9 SWAP1 PUSH2 0xC80 JUMP JUMPDEST DUP2 PUSH1 0x1 DUP1 PUSH1 0xFF AND DUP2 SLOAD DUP2 LT PUSH2 0x851 JUMPI PUSH2 0x851 PUSH2 0xCF3 JUMP JUMPDEST SWAP1 PUSH1 0x0 MSTORE PUSH1 0x20 PUSH1 0x0 KECCAK256 ADD DUP2 SWAP1 SSTORE POP DUP1 PUSH1 0x1 PUSH1 0x2 PUSH1 0xFF AND DUP2 SLOAD DUP2 LT PUSH2 0x877 JUMPI PUSH2 0x877 PUSH2 0xCF3 JUMP JUMPDEST PUSH1 0x0 SWAP2 DUP3 MSTORE PUSH1 0x20 SWAP1 SWAP2 KECCAK256 ADD SSTORE POP POP JUMP JUMPDEST PUSH1 0x60 PUSH1 0x0 PUSH2 0x893 PUSH2 0x6B2 JUMP JUMPDEST PUSH1 0xFF AND GT PUSH2 0x8FD JUMPI PUSH1 0x40 MLOAD PUSH3 0x461BCD PUSH1 0xE5 SHL DUP2 MSTORE PUSH1 0x20 PUSH1 0x4 DUP3 ADD MSTORE PUSH1 0x31 PUSH1 0x24 DUP3 ADD MSTORE PUSH32 0x5B536861726561626C6553746F726167655D3A20646F6573206E6F7420686176 PUSH1 0x44 DUP3 ADD MSTORE PUSH17 0x32903932B0B2103832B936B4B9B9B4B7B7 PUSH1 0x79 SHL PUSH1 0x64 DUP3 ADD MSTORE PUSH1 0x84 ADD PUSH2 0x4C9 JUMP JUMPDEST PUSH1 0x5 DUP1 SLOAD PUSH2 0x3D4 SWAP1 PUSH2 0xC46 JUMP JUMPDEST DUP1 DUP3 GT ISZERO PUSH2 0x4F9 JUMPI PUSH2 0x4F9 DUP4 DUP3 DUP5 SUB JUMPDEST PUSH2 0x922 PUSH2 0x60D JUMP JUMPDEST PUSH2 0x93E JUMPI PUSH1 0x40 MLOAD PUSH3 0x461BCD PUSH1 0xE5 SHL DUP2 MSTORE PUSH1 0x4 ADD PUSH2 0x4C9 SWAP1 PUSH2 0xC80 JUMP JUMPDEST PUSH1 0x40 MLOAD PUSH1 0x1 PUSH1 0x1 PUSH1 0xA0 SHL SUB DUP4 AND SWAP1 DUP3 ISZERO PUSH2 0x8FC MUL SWAP1 DUP4 SWAP1 PUSH1 0x0 DUP2 DUP2 DUP2 DUP6 DUP9 DUP9 CALL SWAP4 POP POP POP POP ISZERO DUP1 ISZERO PUSH2 0x4F9 JUMPI RETURNDATASIZE PUSH1 0x0 DUP1 RETURNDATACOPY RETURNDATASIZE PUSH1 0x0 REVERT JUMPDEST PUSH1 0x0 DUP2 DUP4 GT PUSH2 0x984 JUMPI PUSH1 0x0 PUSH2 0x694 JUMP JUMPDEST POP SWAP1 SUB SWAP1 JUMP JUMPDEST DUP3 DUP1 SLOAD PUSH2 0x996 SWAP1 PUSH2 0xC46 JUMP JUMPDEST SWAP1 PUSH1 0x0 MSTORE PUSH1 0x20 PUSH1 0x0 KECCAK256 SWAP1 PUSH1 0x1F ADD PUSH1 0x20 SWAP1 DIV DUP2 ADD SWAP3 DUP3 PUSH2 0x9B8 JUMPI PUSH1 0x0 DUP6 SSTORE PUSH2 0x9FE JUMP JUMPDEST DUP3 PUSH1 0x1F LT PUSH2 0x9D1 JUMPI DUP1 MLOAD PUSH1 0xFF NOT AND DUP4 DUP1 ADD OR DUP6 SSTORE PUSH2 0x9FE JUMP JUMPDEST DUP3 DUP1 ADD PUSH1 0x1 ADD DUP6 SSTORE DUP3 ISZERO PUSH2 0x9FE JUMPI SWAP2 DUP3 ADD JUMPDEST DUP3 DUP2 GT ISZERO PUSH2 0x9FE JUMPI DUP3 MLOAD DUP3 SSTORE SWAP2 PUSH1 0x20 ADD SWAP2 SWAP1 PUSH1 0x1 ADD SWAP1 PUSH2 0x9E3 JUMP JUMPDEST POP PUSH2 0xA0A SWAP3 SWAP2 POP PUSH2 0xA0E JUMP JUMPDEST POP SWAP1 JUMP JUMPDEST JUMPDEST DUP1 DUP3 GT ISZERO PUSH2 0xA0A JUMPI PUSH1 0x0 DUP2 SSTORE PUSH1 0x1 ADD PUSH2 0xA0F JUMP JUMPDEST PUSH1 0x0 DUP2 MLOAD DUP1 DUP5 MSTORE PUSH1 0x0 JUMPDEST DUP2 DUP2 LT ISZERO PUSH2 0xA49 JUMPI PUSH1 0x20 DUP2 DUP6 ADD DUP2 ADD MLOAD DUP7 DUP4 ADD DUP3 ADD MSTORE ADD PUSH2 0xA2D JUMP JUMPDEST DUP2 DUP2 GT ISZERO PUSH2 0xA5B JUMPI PUSH1 0x0 PUSH1 0x20 DUP4 DUP8 ADD ADD MSTORE JUMPDEST POP PUSH1 0x1F ADD PUSH1 0x1F NOT AND SWAP3 SWAP1 SWAP3 ADD PUSH1 0x20 ADD SWAP3 SWAP2 POP POP JUMP JUMPDEST PUSH1 0x20 DUP2 MSTORE PUSH1 0x0 PUSH2 0x694 PUSH1 0x20 DUP4 ADD DUP5 PUSH2 0xA23 JUMP JUMPDEST DUP1 CALLDATALOAD PUSH1 0xFF DUP2 AND DUP2 EQ PUSH2 0xA94 JUMPI PUSH1 0x0 DUP1 REVERT JUMPDEST SWAP2 SWAP1 POP JUMP JUMPDEST PUSH1 0x0 PUSH1 0x20 DUP3 DUP5 SUB SLT ISZERO PUSH2 0xAAB JUMPI PUSH1 0x0 DUP1 REVERT JUMPDEST PUSH2 0x694 DUP3 PUSH2 0xA83 JUMP JUMPDEST PUSH1 0x20 DUP1 DUP3 MSTORE DUP3 MLOAD DUP3 DUP3 ADD DUP2 SWAP1 MSTORE PUSH1 0x0 SWAP2 SWAP1 DUP5 DUP3 ADD SWAP1 PUSH1 0x40 DUP6 ADD SWAP1 DUP5 JUMPDEST DUP2 DUP2 LT ISZERO PUSH2 0xAEC JUMPI DUP4 MLOAD DUP4 MSTORE SWAP3 DUP5 ADD SWAP3 SWAP2 DUP5 ADD SWAP2 PUSH1 0x1 ADD PUSH2 0xAD0 JUMP JUMPDEST POP SWAP1 SWAP7 SWAP6 POP POP POP POP POP POP JUMP JUMPDEST PUSH4 0x4E487B71 PUSH1 0xE0 SHL PUSH1 0x0 MSTORE PUSH1 0x41 PUSH1 0x4 MSTORE PUSH1 0x24 PUSH1 0x0 REVERT JUMPDEST PUSH1 0x0 PUSH1 0x20 DUP3 DUP5 SUB SLT ISZERO PUSH2 0xB20 JUMPI PUSH1 0x0 DUP1 REVERT JUMPDEST DUP2 CALLDATALOAD PUSH8 0xFFFFFFFFFFFFFFFF DUP1 DUP3 GT ISZERO PUSH2 0xB38 JUMPI PUSH1 0x0 DUP1 REVERT JUMPDEST DUP2 DUP5 ADD SWAP2 POP DUP5 PUSH1 0x1F DUP4 ADD SLT PUSH2 0xB4C JUMPI PUSH1 0x0 DUP1 REVERT JUMPDEST DUP2 CALLDATALOAD DUP2 DUP2 GT ISZERO PUSH2 0xB5E JUMPI PUSH2 0xB5E PUSH2 0xAF8 JUMP JUMPDEST PUSH1 0x40 MLOAD PUSH1 0x1F DUP3 ADD PUSH1 0x1F NOT SWAP1 DUP2 AND PUSH1 0x3F ADD AND DUP2 ADD SWAP1 DUP4 DUP3 GT DUP2 DUP4 LT OR ISZERO PUSH2 0xB86 JUMPI PUSH2 0xB86 PUSH2 0xAF8 JUMP JUMPDEST DUP2 PUSH1 0x40 MSTORE DUP3 DUP2 MSTORE DUP8 PUSH1 0x20 DUP5 DUP8 ADD ADD GT ISZERO PUSH2 0xB9F JUMPI PUSH1 0x0 DUP1 REVERT JUMPDEST DUP3 PUSH1 0x20 DUP7 ADD PUSH1 0x20 DUP4 ADD CALLDATACOPY PUSH1 0x0 SWAP3 DUP2 ADD PUSH1 0x20 ADD SWAP3 SWAP1 SWAP3 MSTORE POP SWAP6 SWAP5 POP POP POP POP POP JUMP JUMPDEST DUP1 CALLDATALOAD PUSH1 0x1 PUSH1 0x1 PUSH1 0xA0 SHL SUB DUP2 AND DUP2 EQ PUSH2 0xA94 JUMPI PUSH1 0x0 DUP1 REVERT JUMPDEST PUSH1 0x0 DUP1 PUSH1 0x40 DUP4 DUP6 SUB SLT ISZERO PUSH2 0xBE9 JUMPI PUSH1 0x0 DUP1 REVERT JUMPDEST PUSH2 0xBF2 DUP4 PUSH2 0xBBF JUMP JUMPDEST SWAP2 POP PUSH2 0xC00 PUSH1 0x20 DUP5 ADD PUSH2 0xA83 JUMP JUMPDEST SWAP1 POP SWAP3 POP SWAP3 SWAP1 POP JUMP JUMPDEST PUSH1 0x0 DUP1 PUSH1 0x40 DUP4 DUP6 SUB SLT ISZERO PUSH2 0xC1C JUMPI PUSH1 0x0 DUP1 REVERT JUMPDEST POP POP DUP1 CALLDATALOAD SWAP3 PUSH1 0x20 SWAP1 SWAP2 ADD CALLDATALOAD SWAP2 POP JUMP JUMPDEST PUSH1 0x0 PUSH1 0x20 DUP3 DUP5 SUB SLT ISZERO PUSH2 0xC3D JUMPI PUSH1 0x0 DUP1 REVERT JUMPDEST PUSH2 0x694 DUP3 PUSH2 0xBBF JUMP JUMPDEST PUSH1 0x1 DUP2 DUP2 SHR SWAP1 DUP3 AND DUP1 PUSH2 0xC5A JUMPI PUSH1 0x7F DUP3 AND SWAP2 POP JUMPDEST PUSH1 0x20 DUP3 LT DUP2 SUB PUSH2 0xC7A JUMPI PUSH4 0x4E487B71 PUSH1 0xE0 SHL PUSH1 0x0 MSTORE PUSH1 0x22 PUSH1 0x4 MSTORE PUSH1 0x24 PUSH1 0x0 REVERT JUMPDEST POP SWAP2 SWAP1 POP JUMP JUMPDEST PUSH1 0x20 DUP1 DUP3 MSTORE PUSH1 0x22 SWAP1 DUP3 ADD MSTORE PUSH32 0x5B4F776E61626C655D3A2063616C6C6572206973206E6F7420746865206F776E PUSH1 0x40 DUP3 ADD MSTORE PUSH2 0x32B9 PUSH1 0xF1 SHL PUSH1 0x60 DUP3 ADD MSTORE PUSH1 0x80 ADD SWAP1 JUMP JUMPDEST PUSH1 0x0 PUSH1 0xFF DUP3 AND PUSH1 0xFF DUP5 AND DUP1 DUP3 LT ISZERO PUSH2 0xCEA JUMPI PUSH4 0x4E487B71 PUSH1 0xE0 SHL PUSH1 0x0 MSTORE PUSH1 0x11 PUSH1 0x4 MSTORE PUSH1 0x24 PUSH1 0x0 REVERT JUMPDEST SWAP1 SUB SWAP4 SWAP3 POP POP POP JUMP JUMPDEST PUSH4 0x4E487B71 PUSH1 0xE0 SHL PUSH1 0x0 MSTORE PUSH1 0x32 PUSH1 0x4 MSTORE PUSH1 0x24 PUSH1 0x0 REVERT INVALID LOG2 PUSH5 0x6970667358 0x22 SLT KECCAK256 DUP14 0xC3 RETURNDATASIZE 0xD PUSH20 0x303252351FD621ED49342420F303D3265F76596C SWAP10 PUSH22 0xD052F2E42D64736F6C634300080D0033000000000000 "}}}